{
	"Contracts/SoilMonitoring.sol": {
		"SoilMonitoring": {
			"abi": [
				{
					"anonymous": false,
					"inputs": [
						{
							"indexed": true,
							"internalType": "address",
							"name": "farmer",
							"type": "address"
						},
						{
							"indexed": false,
							"internalType": "uint256",
							"name": "pH",
							"type": "uint256"
						},
						{
							"indexed": false,
							"internalType": "uint256",
							"name": "moisture",
							"type": "uint256"
						},
						{
							"indexed": false,
							"internalType": "uint256",
							"name": "temperature",
							"type": "uint256"
						},
						{
							"indexed": false,
							"internalType": "uint256",
							"name": "nutrients",
							"type": "uint256"
						}
					],
					"name": "SoilDataUpdated",
					"type": "event"
				},
				{
					"inputs": [
						{
							"internalType": "address",
							"name": "farmer",
							"type": "address"
						}
					],
					"name": "getSoilData",
					"outputs": [
						{
							"components": [
								{
									"internalType": "uint256",
									"name": "pH",
									"type": "uint256"
								},
								{
									"internalType": "uint256",
									"name": "moisture",
									"type": "uint256"
								},
								{
									"internalType": "uint256",
									"name": "temperature",
									"type": "uint256"
								},
								{
									"internalType": "uint256",
									"name": "nutrients",
									"type": "uint256"
								}
							],
							"internalType": "struct SoilMonitoring.SoilData",
							"name": "",
							"type": "tuple"
						}
					],
					"stateMutability": "view",
					"type": "function"
				},
				{
					"inputs": [
						{
							"internalType": "address",
							"name": "",
							"type": "address"
						}
					],
					"name": "soilRecords",
					"outputs": [
						{
							"internalType": "uint256",
							"name": "pH",
							"type": "uint256"
						},
						{
							"internalType": "uint256",
							"name": "moisture",
							"type": "uint256"
						},
						{
							"internalType": "uint256",
							"name": "temperature",
							"type": "uint256"
						},
						{
							"internalType": "uint256",
							"name": "nutrients",
							"type": "uint256"
						}
					],
					"stateMutability": "view",
					"type": "function"
				},
				{
					"inputs": [
						{
							"internalType": "uint256",
							"name": "_pH",
							"type": "uint256"
						},
						{
							"internalType": "uint256",
							"name": "_moisture",
							"type": "uint256"
						},
						{
							"internalType": "uint256",
							"name": "_temperature",
							"type": "uint256"
						},
						{
							"internalType": "uint256",
							"name": "_nutrients",
							"type": "uint256"
						}
					],
					"name": "updateSoilData",
					"outputs": [],
					"stateMutability": "nonpayable",
					"type": "function"
				}
			],
			"devdoc": {
				"kind": "dev",
				"methods": {},
				"version": 1
			},
			"evm": {
				"assembly": "    /* \"Contracts/SoilMonitoring.sol\":60:868  contract SoilMonitoring {... */\n  mstore(0x40, 0x80)\n  callvalue\n  dup1\n  iszero\n  tag_1\n  jumpi\n  0x00\n  dup1\n  revert\ntag_1:\n  pop\n  dataSize(sub_0)\n  dup1\n  dataOffset(sub_0)\n  0x00\n  codecopy\n  0x00\n  return\nstop\n\nsub_0: assembly {\n        /* \"Contracts/SoilMonitoring.sol\":60:868  contract SoilMonitoring {... */\n      mstore(0x40, 0x80)\n      callvalue\n      dup1\n      iszero\n      tag_1\n      jumpi\n      0x00\n      dup1\n      revert\n    tag_1:\n      pop\n      jumpi(tag_2, lt(calldatasize, 0x04))\n      shr(0xe0, calldataload(0x00))\n      dup1\n      0xe128f8\n      eq\n      tag_3\n      jumpi\n      dup1\n      0x164eddf9\n      eq\n      tag_4\n      jumpi\n      dup1\n      0x5ed64ff4\n      eq\n      tag_5\n      jumpi\n    tag_2:\n      0x00\n      dup1\n      revert\n        /* \"Contracts/SoilMonitoring.sol\":409:737  function updateSoilData(... */\n    tag_3:\n      tag_6\n      0x04\n      dup1\n      calldatasize\n      sub\n      dup2\n      add\n      swap1\n      tag_7\n      swap2\n      swap1\n      tag_8\n      jump\t// in\n    tag_7:\n      tag_9\n      jump\t// in\n    tag_6:\n      stop\n        /* \"Contracts/SoilMonitoring.sol\":229:276  mapping(address => SoilData) public soilRecords */\n    tag_4:\n      tag_10\n      0x04\n      dup1\n      calldatasize\n      sub\n      dup2\n      add\n      swap1\n      tag_11\n      swap2\n      swap1\n      tag_12\n      jump\t// in\n    tag_11:\n      tag_13\n      jump\t// in\n    tag_10:\n      mload(0x40)\n      tag_14\n      swap5\n      swap4\n      swap3\n      swap2\n      swap1\n      tag_15\n      jump\t// in\n    tag_14:\n      mload(0x40)\n      dup1\n      swap2\n      sub\n      swap1\n      return\n        /* \"Contracts/SoilMonitoring.sol\":745:865  function getSoilData(address farmer) public view returns (SoilData memory) {... */\n    tag_5:\n      tag_16\n      0x04\n      dup1\n      calldatasize\n      sub\n      dup2\n      add\n      swap1\n      tag_17\n      swap2\n      swap1\n      tag_12\n      jump\t// in\n    tag_17:\n      tag_18\n      jump\t// in\n    tag_16:\n      mload(0x40)\n      tag_19\n      swap2\n      swap1\n      tag_20\n      jump\t// in\n    tag_19:\n      mload(0x40)\n      dup1\n      swap2\n      sub\n      swap1\n      return\n        /* \"Contracts/SoilMonitoring.sol\":409:737  function updateSoilData(... */\n    tag_9:\n        /* \"Contracts/SoilMonitoring.sol\":594:644  SoilData(_pH, _moisture, _temperature, _nutrients) */\n      mload(0x40)\n      dup1\n      0x80\n      add\n      0x40\n      mstore\n      dup1\n        /* \"Contracts/SoilMonitoring.sol\":603:606  _pH */\n      dup6\n        /* \"Contracts/SoilMonitoring.sol\":594:644  SoilData(_pH, _moisture, _temperature, _nutrients) */\n      dup2\n      mstore\n      0x20\n      add\n        /* \"Contracts/SoilMonitoring.sol\":608:617  _moisture */\n      dup5\n        /* \"Contracts/SoilMonitoring.sol\":594:644  SoilData(_pH, _moisture, _temperature, _nutrients) */\n      dup2\n      mstore\n      0x20\n      add\n        /* \"Contracts/SoilMonitoring.sol\":619:631  _temperature */\n      dup4\n        /* \"Contracts/SoilMonitoring.sol\":594:644  SoilData(_pH, _moisture, _temperature, _nutrients) */\n      dup2\n      mstore\n      0x20\n      add\n        /* \"Contracts/SoilMonitoring.sol\":633:643  _nutrients */\n      dup3\n        /* \"Contracts/SoilMonitoring.sol\":594:644  SoilData(_pH, _moisture, _temperature, _nutrients) */\n      dup2\n      mstore\n      pop\n        /* \"Contracts/SoilMonitoring.sol\":568:579  soilRecords */\n      0x00\n        /* \"Contracts/SoilMonitoring.sol\":568:591  soilRecords[msg.sender] */\n      dup1\n        /* \"Contracts/SoilMonitoring.sol\":580:590  msg.sender */\n      caller\n        /* \"Contracts/SoilMonitoring.sol\":568:591  soilRecords[msg.sender] */\n      0xffffffffffffffffffffffffffffffffffffffff\n      and\n      0xffffffffffffffffffffffffffffffffffffffff\n      and\n      dup2\n      mstore\n      0x20\n      add\n      swap1\n      dup2\n      mstore\n      0x20\n      add\n      0x00\n      keccak256\n        /* \"Contracts/SoilMonitoring.sol\":568:644  soilRecords[msg.sender] = SoilData(_pH, _moisture, _temperature, _nutrients) */\n      0x00\n      dup3\n      add\n      mload\n      dup2\n      0x00\n      add\n      sstore\n      0x20\n      dup3\n      add\n      mload\n      dup2\n      0x01\n      add\n      sstore\n      0x40\n      dup3\n      add\n      mload\n      dup2\n      0x02\n      add\n      sstore\n      0x60\n      dup3\n      add\n      mload\n      dup2\n      0x03\n      add\n      sstore\n      swap1\n      pop\n      pop\n        /* \"Contracts/SoilMonitoring.sol\":676:686  msg.sender */\n      caller\n        /* \"Contracts/SoilMonitoring.sol\":660:729  SoilDataUpdated(msg.sender, _pH, _moisture, _temperature, _nutrients) */\n      0xffffffffffffffffffffffffffffffffffffffff\n      and\n      0x070d1549e5b240249b2f3d0306993af6b633327bfb4d19e80fa682bf3e90e804\n        /* \"Contracts/SoilMonitoring.sol\":688:691  _pH */\n      dup6\n        /* \"Contracts/SoilMonitoring.sol\":693:702  _moisture */\n      dup6\n        /* \"Contracts/SoilMonitoring.sol\":704:716  _temperature */\n      dup6\n        /* \"Contracts/SoilMonitoring.sol\":718:728  _nutrients */\n      dup6\n        /* \"Contracts/SoilMonitoring.sol\":660:729  SoilDataUpdated(msg.sender, _pH, _moisture, _temperature, _nutrients) */\n      mload(0x40)\n      tag_22\n      swap5\n      swap4\n      swap3\n      swap2\n      swap1\n      tag_15\n      jump\t// in\n    tag_22:\n      mload(0x40)\n      dup1\n      swap2\n      sub\n      swap1\n      log2\n        /* \"Contracts/SoilMonitoring.sol\":409:737  function updateSoilData(... */\n      pop\n      pop\n      pop\n      pop\n      jump\t// out\n        /* \"Contracts/SoilMonitoring.sol\":229:276  mapping(address => SoilData) public soilRecords */\n    tag_13:\n      mstore(0x20, 0x00)\n      dup1\n      0x00\n      mstore\n      keccak256(0x00, 0x40)\n      0x00\n      swap2\n      pop\n      swap1\n      pop\n      dup1\n      0x00\n      add\n      sload\n      swap1\n      dup1\n      0x01\n      add\n      sload\n      swap1\n      dup1\n      0x02\n      add\n      sload\n      swap1\n      dup1\n      0x03\n      add\n      sload\n      swap1\n      pop\n      dup5\n      jump\t// out\n        /* \"Contracts/SoilMonitoring.sol\":745:865  function getSoilData(address farmer) public view returns (SoilData memory) {... */\n    tag_18:\n        /* \"Contracts/SoilMonitoring.sol\":803:818  SoilData memory */\n      tag_23\n      tag_24\n      jump\t// in\n    tag_23:\n        /* \"Contracts/SoilMonitoring.sol\":838:849  soilRecords */\n      0x00\n        /* \"Contracts/SoilMonitoring.sol\":838:857  soilRecords[farmer] */\n      dup1\n        /* \"Contracts/SoilMonitoring.sol\":850:856  farmer */\n      dup4\n        /* \"Contracts/SoilMonitoring.sol\":838:857  soilRecords[farmer] */\n      0xffffffffffffffffffffffffffffffffffffffff\n      and\n      0xffffffffffffffffffffffffffffffffffffffff\n      and\n      dup2\n      mstore\n      0x20\n      add\n      swap1\n      dup2\n      mstore\n      0x20\n      add\n      0x00\n      keccak256\n        /* \"Contracts/SoilMonitoring.sol\":831:857  return soilRecords[farmer] */\n      mload(0x40)\n      dup1\n      0x80\n      add\n      0x40\n      mstore\n      swap1\n      dup2\n      0x00\n      dup3\n      add\n      sload\n      dup2\n      mstore\n      0x20\n      add\n      0x01\n      dup3\n      add\n      sload\n      dup2\n      mstore\n      0x20\n      add\n      0x02\n      dup3\n      add\n      sload\n      dup2\n      mstore\n      0x20\n      add\n      0x03\n      dup3\n      add\n      sload\n      dup2\n      mstore\n      pop\n      pop\n      swap1\n      pop\n        /* \"Contracts/SoilMonitoring.sol\":745:865  function getSoilData(address farmer) public view returns (SoilData memory) {... */\n      swap2\n      swap1\n      pop\n      jump\t// out\n    tag_24:\n      mload(0x40)\n      dup1\n      0x80\n      add\n      0x40\n      mstore\n      dup1\n      0x00\n      dup2\n      mstore\n      0x20\n      add\n      0x00\n      dup2\n      mstore\n      0x20\n      add\n      0x00\n      dup2\n      mstore\n      0x20\n      add\n      0x00\n      dup2\n      mstore\n      pop\n      swap1\n      jump\t// out\n        /* \"#utility.yul\":88:205   */\n    tag_27:\n        /* \"#utility.yul\":197:198   */\n      0x00\n        /* \"#utility.yul\":194:195   */\n      dup1\n        /* \"#utility.yul\":187:199   */\n      revert\n        /* \"#utility.yul\":334:411   */\n    tag_29:\n        /* \"#utility.yul\":371:378   */\n      0x00\n        /* \"#utility.yul\":400:405   */\n      dup2\n        /* \"#utility.yul\":389:405   */\n      swap1\n      pop\n        /* \"#utility.yul\":334:411   */\n      swap2\n      swap1\n      pop\n      jump\t// out\n        /* \"#utility.yul\":417:539   */\n    tag_30:\n        /* \"#utility.yul\":490:514   */\n      tag_45\n        /* \"#utility.yul\":508:513   */\n      dup2\n        /* \"#utility.yul\":490:514   */\n      tag_29\n      jump\t// in\n    tag_45:\n        /* \"#utility.yul\":483:488   */\n      dup2\n        /* \"#utility.yul\":480:515   */\n      eq\n        /* \"#utility.yul\":470:533   */\n      tag_46\n      jumpi\n        /* \"#utility.yul\":529:530   */\n      0x00\n        /* \"#utility.yul\":526:527   */\n      dup1\n        /* \"#utility.yul\":519:531   */\n      revert\n        /* \"#utility.yul\":470:533   */\n    tag_46:\n        /* \"#utility.yul\":417:539   */\n      pop\n      jump\t// out\n        /* \"#utility.yul\":545:684   */\n    tag_31:\n        /* \"#utility.yul\":591:596   */\n      0x00\n        /* \"#utility.yul\":629:635   */\n      dup2\n        /* \"#utility.yul\":616:636   */\n      calldataload\n        /* \"#utility.yul\":607:636   */\n      swap1\n      pop\n        /* \"#utility.yul\":645:678   */\n      tag_48\n        /* \"#utility.yul\":672:677   */\n      dup2\n        /* \"#utility.yul\":645:678   */\n      tag_30\n      jump\t// in\n    tag_48:\n        /* \"#utility.yul\":545:684   */\n      swap3\n      swap2\n      pop\n      pop\n      jump\t// out\n        /* \"#utility.yul\":690:1455   */\n    tag_8:\n        /* \"#utility.yul\":776:782   */\n      0x00\n        /* \"#utility.yul\":784:790   */\n      dup1\n        /* \"#utility.yul\":792:798   */\n      0x00\n        /* \"#utility.yul\":800:806   */\n      dup1\n        /* \"#utility.yul\":849:852   */\n      0x80\n        /* \"#utility.yul\":837:846   */\n      dup6\n        /* \"#utility.yul\":828:835   */\n      dup8\n        /* \"#utility.yul\":824:847   */\n      sub\n        /* \"#utility.yul\":820:853   */\n      slt\n        /* \"#utility.yul\":817:937   */\n      iszero\n      tag_50\n      jumpi\n        /* \"#utility.yul\":856:935   */\n      tag_51\n      tag_27\n      jump\t// in\n    tag_51:\n        /* \"#utility.yul\":817:937   */\n    tag_50:\n        /* \"#utility.yul\":976:977   */\n      0x00\n        /* \"#utility.yul\":1001:1054   */\n      tag_52\n        /* \"#utility.yul\":1046:1053   */\n      dup8\n        /* \"#utility.yul\":1037:1043   */\n      dup3\n        /* \"#utility.yul\":1026:1035   */\n      dup9\n        /* \"#utility.yul\":1022:1044   */\n      add\n        /* \"#utility.yul\":1001:1054   */\n      tag_31\n      jump\t// in\n    tag_52:\n        /* \"#utility.yul\":991:1054   */\n      swap5\n      pop\n        /* \"#utility.yul\":947:1064   */\n      pop\n        /* \"#utility.yul\":1103:1105   */\n      0x20\n        /* \"#utility.yul\":1129:1182   */\n      tag_53\n        /* \"#utility.yul\":1174:1181   */\n      dup8\n        /* \"#utility.yul\":1165:1171   */\n      dup3\n        /* \"#utility.yul\":1154:1163   */\n      dup9\n        /* \"#utility.yul\":1150:1172   */\n      add\n        /* \"#utility.yul\":1129:1182   */\n      tag_31\n      jump\t// in\n    tag_53:\n        /* \"#utility.yul\":1119:1182   */\n      swap4\n      pop\n        /* \"#utility.yul\":1074:1192   */\n      pop\n        /* \"#utility.yul\":1231:1233   */\n      0x40\n        /* \"#utility.yul\":1257:1310   */\n      tag_54\n        /* \"#utility.yul\":1302:1309   */\n      dup8\n        /* \"#utility.yul\":1293:1299   */\n      dup3\n        /* \"#utility.yul\":1282:1291   */\n      dup9\n        /* \"#utility.yul\":1278:1300   */\n      add\n        /* \"#utility.yul\":1257:1310   */\n      tag_31\n      jump\t// in\n    tag_54:\n        /* \"#utility.yul\":1247:1310   */\n      swap3\n      pop\n        /* \"#utility.yul\":1202:1320   */\n      pop\n        /* \"#utility.yul\":1359:1361   */\n      0x60\n        /* \"#utility.yul\":1385:1438   */\n      tag_55\n        /* \"#utility.yul\":1430:1437   */\n      dup8\n        /* \"#utility.yul\":1421:1427   */\n      dup3\n        /* \"#utility.yul\":1410:1419   */\n      dup9\n        /* \"#utility.yul\":1406:1428   */\n      add\n        /* \"#utility.yul\":1385:1438   */\n      tag_31\n      jump\t// in\n    tag_55:\n        /* \"#utility.yul\":1375:1438   */\n      swap2\n      pop\n        /* \"#utility.yul\":1330:1448   */\n      pop\n        /* \"#utility.yul\":690:1455   */\n      swap3\n      swap6\n      swap2\n      swap5\n      pop\n      swap3\n      pop\n      jump\t// out\n        /* \"#utility.yul\":1461:1587   */\n    tag_32:\n        /* \"#utility.yul\":1498:1505   */\n      0x00\n        /* \"#utility.yul\":1538:1580   */\n      0xffffffffffffffffffffffffffffffffffffffff\n        /* \"#utility.yul\":1531:1536   */\n      dup3\n        /* \"#utility.yul\":1527:1581   */\n      and\n        /* \"#utility.yul\":1516:1581   */\n      swap1\n      pop\n        /* \"#utility.yul\":1461:1587   */\n      swap2\n      swap1\n      pop\n      jump\t// out\n        /* \"#utility.yul\":1593:1689   */\n    tag_33:\n        /* \"#utility.yul\":1630:1637   */\n      0x00\n        /* \"#utility.yul\":1659:1683   */\n      tag_58\n        /* \"#utility.yul\":1677:1682   */\n      dup3\n        /* \"#utility.yul\":1659:1683   */\n      tag_32\n      jump\t// in\n    tag_58:\n        /* \"#utility.yul\":1648:1683   */\n      swap1\n      pop\n        /* \"#utility.yul\":1593:1689   */\n      swap2\n      swap1\n      pop\n      jump\t// out\n        /* \"#utility.yul\":1695:1817   */\n    tag_34:\n        /* \"#utility.yul\":1768:1792   */\n      tag_60\n        /* \"#utility.yul\":1786:1791   */\n      dup2\n        /* \"#utility.yul\":1768:1792   */\n      tag_33\n      jump\t// in\n    tag_60:\n        /* \"#utility.yul\":1761:1766   */\n      dup2\n        /* \"#utility.yul\":1758:1793   */\n      eq\n        /* \"#utility.yul\":1748:1811   */\n      tag_61\n      jumpi\n        /* \"#utility.yul\":1807:1808   */\n      0x00\n        /* \"#utility.yul\":1804:1805   */\n      dup1\n        /* \"#utility.yul\":1797:1809   */\n      revert\n        /* \"#utility.yul\":1748:1811   */\n    tag_61:\n        /* \"#utility.yul\":1695:1817   */\n      pop\n      jump\t// out\n        /* \"#utility.yul\":1823:1962   */\n    tag_35:\n        /* \"#utility.yul\":1869:1874   */\n      0x00\n        /* \"#utility.yul\":1907:1913   */\n      dup2\n        /* \"#utility.yul\":1894:1914   */\n      calldataload\n        /* \"#utility.yul\":1885:1914   */\n      swap1\n      pop\n        /* \"#utility.yul\":1923:1956   */\n      tag_63\n        /* \"#utility.yul\":1950:1955   */\n      dup2\n        /* \"#utility.yul\":1923:1956   */\n      tag_34\n      jump\t// in\n    tag_63:\n        /* \"#utility.yul\":1823:1962   */\n      swap3\n      swap2\n      pop\n      pop\n      jump\t// out\n        /* \"#utility.yul\":1968:2297   */\n    tag_12:\n        /* \"#utility.yul\":2027:2033   */\n      0x00\n        /* \"#utility.yul\":2076:2078   */\n      0x20\n        /* \"#utility.yul\":2064:2073   */\n      dup3\n        /* \"#utility.yul\":2055:2062   */\n      dup5\n        /* \"#utility.yul\":2051:2074   */\n      sub\n        /* \"#utility.yul\":2047:2079   */\n      slt\n        /* \"#utility.yul\":2044:2163   */\n      iszero\n      tag_65\n      jumpi\n        /* \"#utility.yul\":2082:2161   */\n      tag_66\n      tag_27\n      jump\t// in\n    tag_66:\n        /* \"#utility.yul\":2044:2163   */\n    tag_65:\n        /* \"#utility.yul\":2202:2203   */\n      0x00\n        /* \"#utility.yul\":2227:2280   */\n      tag_67\n        /* \"#utility.yul\":2272:2279   */\n      dup5\n        /* \"#utility.yul\":2263:2269   */\n      dup3\n        /* \"#utility.yul\":2252:2261   */\n      dup6\n        /* \"#utility.yul\":2248:2270   */\n      add\n        /* \"#utility.yul\":2227:2280   */\n      tag_35\n      jump\t// in\n    tag_67:\n        /* \"#utility.yul\":2217:2280   */\n      swap2\n      pop\n        /* \"#utility.yul\":2173:2290   */\n      pop\n        /* \"#utility.yul\":1968:2297   */\n      swap3\n      swap2\n      pop\n      pop\n      jump\t// out\n        /* \"#utility.yul\":2303:2421   */\n    tag_36:\n        /* \"#utility.yul\":2390:2414   */\n      tag_69\n        /* \"#utility.yul\":2408:2413   */\n      dup2\n        /* \"#utility.yul\":2390:2414   */\n      tag_29\n      jump\t// in\n    tag_69:\n        /* \"#utility.yul\":2385:2388   */\n      dup3\n        /* \"#utility.yul\":2378:2415   */\n      mstore\n        /* \"#utility.yul\":2303:2421   */\n      pop\n      pop\n      jump\t// out\n        /* \"#utility.yul\":2427:2980   */\n    tag_15:\n        /* \"#utility.yul\":2604:2608   */\n      0x00\n        /* \"#utility.yul\":2642:2645   */\n      0x80\n        /* \"#utility.yul\":2631:2640   */\n      dup3\n        /* \"#utility.yul\":2627:2646   */\n      add\n        /* \"#utility.yul\":2619:2646   */\n      swap1\n      pop\n        /* \"#utility.yul\":2656:2727   */\n      tag_71\n        /* \"#utility.yul\":2724:2725   */\n      0x00\n        /* \"#utility.yul\":2713:2722   */\n      dup4\n        /* \"#utility.yul\":2709:2726   */\n      add\n        /* \"#utility.yul\":2700:2706   */\n      dup8\n        /* \"#utility.yul\":2656:2727   */\n      tag_36\n      jump\t// in\n    tag_71:\n        /* \"#utility.yul\":2737:2809   */\n      tag_72\n        /* \"#utility.yul\":2805:2807   */\n      0x20\n        /* \"#utility.yul\":2794:2803   */\n      dup4\n        /* \"#utility.yul\":2790:2808   */\n      add\n        /* \"#utility.yul\":2781:2787   */\n      dup7\n        /* \"#utility.yul\":2737:2809   */\n      tag_36\n      jump\t// in\n    tag_72:\n        /* \"#utility.yul\":2819:2891   */\n      tag_73\n        /* \"#utility.yul\":2887:2889   */\n      0x40\n        /* \"#utility.yul\":2876:2885   */\n      dup4\n        /* \"#utility.yul\":2872:2890   */\n      add\n        /* \"#utility.yul\":2863:2869   */\n      dup6\n        /* \"#utility.yul\":2819:2891   */\n      tag_36\n      jump\t// in\n    tag_73:\n        /* \"#utility.yul\":2901:2973   */\n      tag_74\n        /* \"#utility.yul\":2969:2971   */\n      0x60\n        /* \"#utility.yul\":2958:2967   */\n      dup4\n        /* \"#utility.yul\":2954:2972   */\n      add\n        /* \"#utility.yul\":2945:2951   */\n      dup5\n        /* \"#utility.yul\":2901:2973   */\n      tag_36\n      jump\t// in\n    tag_74:\n        /* \"#utility.yul\":2427:2980   */\n      swap6\n      swap5\n      pop\n      pop\n      pop\n      pop\n      pop\n      jump\t// out\n        /* \"#utility.yul\":2986:3094   */\n    tag_37:\n        /* \"#utility.yul\":3063:3087   */\n      tag_76\n        /* \"#utility.yul\":3081:3086   */\n      dup2\n        /* \"#utility.yul\":3063:3087   */\n      tag_29\n      jump\t// in\n    tag_76:\n        /* \"#utility.yul\":3058:3061   */\n      dup3\n        /* \"#utility.yul\":3051:3088   */\n      mstore\n        /* \"#utility.yul\":2986:3094   */\n      pop\n      pop\n      jump\t// out\n        /* \"#utility.yul\":3172:4039   */\n    tag_38:\n        /* \"#utility.yul\":3317:3321   */\n      0x80\n        /* \"#utility.yul\":3312:3315   */\n      dup3\n        /* \"#utility.yul\":3308:3322   */\n      add\n        /* \"#utility.yul\":3402:3406   */\n      0x00\n        /* \"#utility.yul\":3395:3400   */\n      dup3\n        /* \"#utility.yul\":3391:3407   */\n      add\n        /* \"#utility.yul\":3385:3408   */\n      mload\n        /* \"#utility.yul\":3421:3484   */\n      tag_78\n        /* \"#utility.yul\":3478:3482   */\n      0x00\n        /* \"#utility.yul\":3473:3476   */\n      dup6\n        /* \"#utility.yul\":3469:3483   */\n      add\n        /* \"#utility.yul\":3455:3467   */\n      dup3\n        /* \"#utility.yul\":3421:3484   */\n      tag_37\n      jump\t// in\n    tag_78:\n        /* \"#utility.yul\":3332:3494   */\n      pop\n        /* \"#utility.yul\":3580:3584   */\n      0x20\n        /* \"#utility.yul\":3573:3578   */\n      dup3\n        /* \"#utility.yul\":3569:3585   */\n      add\n        /* \"#utility.yul\":3563:3586   */\n      mload\n        /* \"#utility.yul\":3599:3662   */\n      tag_79\n        /* \"#utility.yul\":3656:3660   */\n      0x20\n        /* \"#utility.yul\":3651:3654   */\n      dup6\n        /* \"#utility.yul\":3647:3661   */\n      add\n        /* \"#utility.yul\":3633:3645   */\n      dup3\n        /* \"#utility.yul\":3599:3662   */\n      tag_37\n      jump\t// in\n    tag_79:\n        /* \"#utility.yul\":3504:3672   */\n      pop\n        /* \"#utility.yul\":3761:3765   */\n      0x40\n        /* \"#utility.yul\":3754:3759   */\n      dup3\n        /* \"#utility.yul\":3750:3766   */\n      add\n        /* \"#utility.yul\":3744:3767   */\n      mload\n        /* \"#utility.yul\":3780:3843   */\n      tag_80\n        /* \"#utility.yul\":3837:3841   */\n      0x40\n        /* \"#utility.yul\":3832:3835   */\n      dup6\n        /* \"#utility.yul\":3828:3842   */\n      add\n        /* \"#utility.yul\":3814:3826   */\n      dup3\n        /* \"#utility.yul\":3780:3843   */\n      tag_37\n      jump\t// in\n    tag_80:\n        /* \"#utility.yul\":3682:3853   */\n      pop\n        /* \"#utility.yul\":3940:3944   */\n      0x60\n        /* \"#utility.yul\":3933:3938   */\n      dup3\n        /* \"#utility.yul\":3929:3945   */\n      add\n        /* \"#utility.yul\":3923:3946   */\n      mload\n        /* \"#utility.yul\":3959:4022   */\n      tag_81\n        /* \"#utility.yul\":4016:4020   */\n      0x60\n        /* \"#utility.yul\":4011:4014   */\n      dup6\n        /* \"#utility.yul\":4007:4021   */\n      add\n        /* \"#utility.yul\":3993:4005   */\n      dup3\n        /* \"#utility.yul\":3959:4022   */\n      tag_37\n      jump\t// in\n    tag_81:\n        /* \"#utility.yul\":3863:4032   */\n      pop\n        /* \"#utility.yul\":3286:4039   */\n      pop\n        /* \"#utility.yul\":3172:4039   */\n      pop\n      pop\n      jump\t// out\n        /* \"#utility.yul\":4045:4364   */\n    tag_20:\n        /* \"#utility.yul\":4186:4190   */\n      0x00\n        /* \"#utility.yul\":4224:4227   */\n      0x80\n        /* \"#utility.yul\":4213:4222   */\n      dup3\n        /* \"#utility.yul\":4209:4228   */\n      add\n        /* \"#utility.yul\":4201:4228   */\n      swap1\n      pop\n        /* \"#utility.yul\":4238:4357   */\n      tag_83\n        /* \"#utility.yul\":4354:4355   */\n      0x00\n        /* \"#utility.yul\":4343:4352   */\n      dup4\n        /* \"#utility.yul\":4339:4356   */\n      add\n        /* \"#utility.yul\":4330:4336   */\n      dup5\n        /* \"#utility.yul\":4238:4357   */\n      tag_38\n      jump\t// in\n    tag_83:\n        /* \"#utility.yul\":4045:4364   */\n      swap3\n      swap2\n      pop\n      pop\n      jump\t// out\n\n    auxdata: 0xa2646970667358221220302b5d4fa9d3f1fb40ab80b7c5d8c54b40eec2235df4f8ca0e40316284ee555664736f6c634300081a0033\n}\n",
				"bytecode": {
					"linkReferences": {},
					"object": "6080604052348015600e575f80fd5b506104908061001c5f395ff3fe608060405234801561000f575f80fd5b506004361061003e575f3560e01c8062e128f814610042578063164eddf91461005e5780635ed64ff414610091575b5f80fd5b61005c600480360381019061005791906102a4565b6100c1565b005b61007860048036038101906100739190610362565b6101a1565b604051610088949392919061039c565b60405180910390f35b6100ab60048036038101906100a69190610362565b6101cc565b6040516100b89190610441565b60405180910390f35b6040518060800160405280858152602001848152602001838152602001828152505f803373ffffffffffffffffffffffffffffffffffffffff1673ffffffffffffffffffffffffffffffffffffffff1681526020019081526020015f205f820151815f01556020820151816001015560408201518160020155606082015181600301559050503373ffffffffffffffffffffffffffffffffffffffff167f070d1549e5b240249b2f3d0306993af6b633327bfb4d19e80fa682bf3e90e80485858585604051610193949392919061039c565b60405180910390a250505050565b5f602052805f5260405f205f91509050805f0154908060010154908060020154908060030154905084565b6101d4610249565b5f808373ffffffffffffffffffffffffffffffffffffffff1673ffffffffffffffffffffffffffffffffffffffff1681526020019081526020015f206040518060800160405290815f820154815260200160018201548152602001600282015481526020016003820154815250509050919050565b60405180608001604052805f81526020015f81526020015f81526020015f81525090565b5f80fd5b5f819050919050565b61028381610271565b811461028d575f80fd5b50565b5f8135905061029e8161027a565b92915050565b5f805f80608085870312156102bc576102bb61026d565b5b5f6102c987828801610290565b94505060206102da87828801610290565b93505060406102eb87828801610290565b92505060606102fc87828801610290565b91505092959194509250565b5f73ffffffffffffffffffffffffffffffffffffffff82169050919050565b5f61033182610308565b9050919050565b61034181610327565b811461034b575f80fd5b50565b5f8135905061035c81610338565b92915050565b5f602082840312156103775761037661026d565b5b5f6103848482850161034e565b91505092915050565b61039681610271565b82525050565b5f6080820190506103af5f83018761038d565b6103bc602083018661038d565b6103c9604083018561038d565b6103d6606083018461038d565b95945050505050565b6103e881610271565b82525050565b608082015f8201516104025f8501826103df565b50602082015161041560208501826103df565b50604082015161042860408501826103df565b50606082015161043b60608501826103df565b50505050565b5f6080820190506104545f8301846103ee565b9291505056fea2646970667358221220302b5d4fa9d3f1fb40ab80b7c5d8c54b40eec2235df4f8ca0e40316284ee555664736f6c634300081a0033",
					"opcodes": "PUSH1 0x80 PUSH1 0x40 MSTORE CALLVALUE DUP1 ISZERO PUSH1 0xE JUMPI PUSH0 DUP1 REVERT JUMPDEST POP PUSH2 0x490 DUP1 PUSH2 0x1C PUSH0 CODECOPY PUSH0 RETURN INVALID PUSH1 0x80 PUSH1 0x40 MSTORE CALLVALUE DUP1 ISZERO PUSH2 0xF JUMPI PUSH0 DUP1 REVERT JUMPDEST POP PUSH1 0x4 CALLDATASIZE LT PUSH2 0x3E JUMPI PUSH0 CALLDATALOAD PUSH1 0xE0 SHR DUP1 PUSH3 0xE128F8 EQ PUSH2 0x42 JUMPI DUP1 PUSH4 0x164EDDF9 EQ PUSH2 0x5E JUMPI DUP1 PUSH4 0x5ED64FF4 EQ PUSH2 0x91 JUMPI JUMPDEST PUSH0 DUP1 REVERT JUMPDEST PUSH2 0x5C PUSH1 0x4 DUP1 CALLDATASIZE SUB DUP2 ADD SWAP1 PUSH2 0x57 SWAP2 SWAP1 PUSH2 0x2A4 JUMP JUMPDEST PUSH2 0xC1 JUMP JUMPDEST STOP JUMPDEST PUSH2 0x78 PUSH1 0x4 DUP1 CALLDATASIZE SUB DUP2 ADD SWAP1 PUSH2 0x73 SWAP2 SWAP1 PUSH2 0x362 JUMP JUMPDEST PUSH2 0x1A1 JUMP JUMPDEST PUSH1 0x40 MLOAD PUSH2 0x88 SWAP5 SWAP4 SWAP3 SWAP2 SWAP1 PUSH2 0x39C JUMP JUMPDEST PUSH1 0x40 MLOAD DUP1 SWAP2 SUB SWAP1 RETURN JUMPDEST PUSH2 0xAB PUSH1 0x4 DUP1 CALLDATASIZE SUB DUP2 ADD SWAP1 PUSH2 0xA6 SWAP2 SWAP1 PUSH2 0x362 JUMP JUMPDEST PUSH2 0x1CC JUMP JUMPDEST PUSH1 0x40 MLOAD PUSH2 0xB8 SWAP2 SWAP1 PUSH2 0x441 JUMP JUMPDEST PUSH1 0x40 MLOAD DUP1 SWAP2 SUB SWAP1 RETURN JUMPDEST PUSH1 0x40 MLOAD DUP1 PUSH1 0x80 ADD PUSH1 0x40 MSTORE DUP1 DUP6 DUP2 MSTORE PUSH1 0x20 ADD DUP5 DUP2 MSTORE PUSH1 0x20 ADD DUP4 DUP2 MSTORE PUSH1 0x20 ADD DUP3 DUP2 MSTORE POP PUSH0 DUP1 CALLER PUSH20 0xFFFFFFFFFFFFFFFFFFFFFFFFFFFFFFFFFFFFFFFF AND PUSH20 0xFFFFFFFFFFFFFFFFFFFFFFFFFFFFFFFFFFFFFFFF AND DUP2 MSTORE PUSH1 0x20 ADD SWAP1 DUP2 MSTORE PUSH1 0x20 ADD PUSH0 KECCAK256 PUSH0 DUP3 ADD MLOAD DUP2 PUSH0 ADD SSTORE PUSH1 0x20 DUP3 ADD MLOAD DUP2 PUSH1 0x1 ADD SSTORE PUSH1 0x40 DUP3 ADD MLOAD DUP2 PUSH1 0x2 ADD SSTORE PUSH1 0x60 DUP3 ADD MLOAD DUP2 PUSH1 0x3 ADD SSTORE SWAP1 POP POP CALLER PUSH20 0xFFFFFFFFFFFFFFFFFFFFFFFFFFFFFFFFFFFFFFFF AND PUSH32 0x70D1549E5B240249B2F3D0306993AF6B633327BFB4D19E80FA682BF3E90E804 DUP6 DUP6 DUP6 DUP6 PUSH1 0x40 MLOAD PUSH2 0x193 SWAP5 SWAP4 SWAP3 SWAP2 SWAP1 PUSH2 0x39C JUMP JUMPDEST PUSH1 0x40 MLOAD DUP1 SWAP2 SUB SWAP1 LOG2 POP POP POP POP JUMP JUMPDEST PUSH0 PUSH1 0x20 MSTORE DUP1 PUSH0 MSTORE PUSH1 0x40 PUSH0 KECCAK256 PUSH0 SWAP2 POP SWAP1 POP DUP1 PUSH0 ADD SLOAD SWAP1 DUP1 PUSH1 0x1 ADD SLOAD SWAP1 DUP1 PUSH1 0x2 ADD SLOAD SWAP1 DUP1 PUSH1 0x3 ADD SLOAD SWAP1 POP DUP5 JUMP JUMPDEST PUSH2 0x1D4 PUSH2 0x249 JUMP JUMPDEST PUSH0 DUP1 DUP4 PUSH20 0xFFFFFFFFFFFFFFFFFFFFFFFFFFFFFFFFFFFFFFFF AND PUSH20 0xFFFFFFFFFFFFFFFFFFFFFFFFFFFFFFFFFFFFFFFF AND DUP2 MSTORE PUSH1 0x20 ADD SWAP1 DUP2 MSTORE PUSH1 0x20 ADD PUSH0 KECCAK256 PUSH1 0x40 MLOAD DUP1 PUSH1 0x80 ADD PUSH1 0x40 MSTORE SWAP1 DUP2 PUSH0 DUP3 ADD SLOAD DUP2 MSTORE PUSH1 0x20 ADD PUSH1 0x1 DUP3 ADD SLOAD DUP2 MSTORE PUSH1 0x20 ADD PUSH1 0x2 DUP3 ADD SLOAD DUP2 MSTORE PUSH1 0x20 ADD PUSH1 0x3 DUP3 ADD SLOAD DUP2 MSTORE POP POP SWAP1 POP SWAP2 SWAP1 POP JUMP JUMPDEST PUSH1 0x40 MLOAD DUP1 PUSH1 0x80 ADD PUSH1 0x40 MSTORE DUP1 PUSH0 DUP2 MSTORE PUSH1 0x20 ADD PUSH0 DUP2 MSTORE PUSH1 0x20 ADD PUSH0 DUP2 MSTORE PUSH1 0x20 ADD PUSH0 DUP2 MSTORE POP SWAP1 JUMP JUMPDEST PUSH0 DUP1 REVERT JUMPDEST PUSH0 DUP2 SWAP1 POP SWAP2 SWAP1 POP JUMP JUMPDEST PUSH2 0x283 DUP2 PUSH2 0x271 JUMP JUMPDEST DUP2 EQ PUSH2 0x28D JUMPI PUSH0 DUP1 REVERT JUMPDEST POP JUMP JUMPDEST PUSH0 DUP2 CALLDATALOAD SWAP1 POP PUSH2 0x29E DUP2 PUSH2 0x27A JUMP JUMPDEST SWAP3 SWAP2 POP POP JUMP JUMPDEST PUSH0 DUP1 PUSH0 DUP1 PUSH1 0x80 DUP6 DUP8 SUB SLT ISZERO PUSH2 0x2BC JUMPI PUSH2 0x2BB PUSH2 0x26D JUMP JUMPDEST JUMPDEST PUSH0 PUSH2 0x2C9 DUP8 DUP3 DUP9 ADD PUSH2 0x290 JUMP JUMPDEST SWAP5 POP POP PUSH1 0x20 PUSH2 0x2DA DUP8 DUP3 DUP9 ADD PUSH2 0x290 JUMP JUMPDEST SWAP4 POP POP PUSH1 0x40 PUSH2 0x2EB DUP8 DUP3 DUP9 ADD PUSH2 0x290 JUMP JUMPDEST SWAP3 POP POP PUSH1 0x60 PUSH2 0x2FC DUP8 DUP3 DUP9 ADD PUSH2 0x290 JUMP JUMPDEST SWAP2 POP POP SWAP3 SWAP6 SWAP2 SWAP5 POP SWAP3 POP JUMP JUMPDEST PUSH0 PUSH20 0xFFFFFFFFFFFFFFFFFFFFFFFFFFFFFFFFFFFFFFFF DUP3 AND SWAP1 POP SWAP2 SWAP1 POP JUMP JUMPDEST PUSH0 PUSH2 0x331 DUP3 PUSH2 0x308 JUMP JUMPDEST SWAP1 POP SWAP2 SWAP1 POP JUMP JUMPDEST PUSH2 0x341 DUP2 PUSH2 0x327 JUMP JUMPDEST DUP2 EQ PUSH2 0x34B JUMPI PUSH0 DUP1 REVERT JUMPDEST POP JUMP JUMPDEST PUSH0 DUP2 CALLDATALOAD SWAP1 POP PUSH2 0x35C DUP2 PUSH2 0x338 JUMP JUMPDEST SWAP3 SWAP2 POP POP JUMP JUMPDEST PUSH0 PUSH1 0x20 DUP3 DUP5 SUB SLT ISZERO PUSH2 0x377 JUMPI PUSH2 0x376 PUSH2 0x26D JUMP JUMPDEST JUMPDEST PUSH0 PUSH2 0x384 DUP5 DUP3 DUP6 ADD PUSH2 0x34E JUMP JUMPDEST SWAP2 POP POP SWAP3 SWAP2 POP POP JUMP JUMPDEST PUSH2 0x396 DUP2 PUSH2 0x271 JUMP JUMPDEST DUP3 MSTORE POP POP JUMP JUMPDEST PUSH0 PUSH1 0x80 DUP3 ADD SWAP1 POP PUSH2 0x3AF PUSH0 DUP4 ADD DUP8 PUSH2 0x38D JUMP JUMPDEST PUSH2 0x3BC PUSH1 0x20 DUP4 ADD DUP7 PUSH2 0x38D JUMP JUMPDEST PUSH2 0x3C9 PUSH1 0x40 DUP4 ADD DUP6 PUSH2 0x38D JUMP JUMPDEST PUSH2 0x3D6 PUSH1 0x60 DUP4 ADD DUP5 PUSH2 0x38D JUMP JUMPDEST SWAP6 SWAP5 POP POP POP POP POP JUMP JUMPDEST PUSH2 0x3E8 DUP2 PUSH2 0x271 JUMP JUMPDEST DUP3 MSTORE POP POP JUMP JUMPDEST PUSH1 0x80 DUP3 ADD PUSH0 DUP3 ADD MLOAD PUSH2 0x402 PUSH0 DUP6 ADD DUP3 PUSH2 0x3DF JUMP JUMPDEST POP PUSH1 0x20 DUP3 ADD MLOAD PUSH2 0x415 PUSH1 0x20 DUP6 ADD DUP3 PUSH2 0x3DF JUMP JUMPDEST POP PUSH1 0x40 DUP3 ADD MLOAD PUSH2 0x428 PUSH1 0x40 DUP6 ADD DUP3 PUSH2 0x3DF JUMP JUMPDEST POP PUSH1 0x60 DUP3 ADD MLOAD PUSH2 0x43B PUSH1 0x60 DUP6 ADD DUP3 PUSH2 0x3DF JUMP JUMPDEST POP POP POP POP JUMP JUMPDEST PUSH0 PUSH1 0x80 DUP3 ADD SWAP1 POP PUSH2 0x454 PUSH0 DUP4 ADD DUP5 PUSH2 0x3EE JUMP JUMPDEST SWAP3 SWAP2 POP POP JUMP INVALID LOG2 PUSH5 0x6970667358 0x22 SLT KECCAK256 ADDRESS 0x2B TSTORE 0x4F 0xA9 0xD3 CALL 0xFB BLOCKHASH 0xAB DUP1 0xB7 0xC5 0xD8 0xC5 0x4B BLOCKHASH 0xEE 0xC2 0x23 TSTORE DELEGATECALL 0xF8 0xCA 0xE BLOCKHASH BALANCE PUSH3 0x84EE55 JUMP PUSH5 0x736F6C6343 STOP ADDMOD BYTE STOP CALLER "
				},
				"gasEstimates": {
					"creation": {
						"codeDepositCost": "233600",
						"executionCost": "273",
						"totalCost": "233873"
					},
					"external": {
						"getSoilData(address)": "infinite",
						"soilRecords(address)": "infinite",
						"updateSoilData(uint256,uint256,uint256,uint256)": "infinite"
					}
				},
				"methodIdentifiers": {
					"getSoilData(address)": "5ed64ff4",
					"soilRecords(address)": "164eddf9",
					"updateSoilData(uint256,uint256,uint256,uint256)": "00e128f8"
				}
			},
			"storageLayout": {
				"storage": [
					{
						"astId": 15,
						"contract": "Contracts/SoilMonitoring.sol:SoilMonitoring",
						"label": "soilRecords",
						"offset": 0,
						"slot": "0",
						"type": "t_mapping(t_address,t_struct(SoilData)10_storage)"
					}
				],
				"types": {
					"t_address": {
						"encoding": "inplace",
						"label": "address",
						"numberOfBytes": "20"
					},
					"t_mapping(t_address,t_struct(SoilData)10_storage)": {
						"encoding": "mapping",
						"key": "t_address",
						"label": "mapping(address => struct SoilMonitoring.SoilData)",
						"numberOfBytes": "32",
						"value": "t_struct(SoilData)10_storage"
					},
					"t_struct(SoilData)10_storage": {
						"encoding": "inplace",
						"label": "struct SoilMonitoring.SoilData",
						"members": [
							{
								"astId": 3,
								"contract": "Contracts/SoilMonitoring.sol:SoilMonitoring",
								"label": "pH",
								"offset": 0,
								"slot": "0",
								"type": "t_uint256"
							},
							{
								"astId": 5,
								"contract": "Contracts/SoilMonitoring.sol:SoilMonitoring",
								"label": "moisture",
								"offset": 0,
								"slot": "1",
								"type": "t_uint256"
							},
							{
								"astId": 7,
								"contract": "Contracts/SoilMonitoring.sol:SoilMonitoring",
								"label": "temperature",
								"offset": 0,
								"slot": "2",
								"type": "t_uint256"
							},
							{
								"astId": 9,
								"contract": "Contracts/SoilMonitoring.sol:SoilMonitoring",
								"label": "nutrients",
								"offset": 0,
								"slot": "3",
								"type": "t_uint256"
							}
						],
						"numberOfBytes": "128"
					},
					"t_uint256": {
						"encoding": "inplace",
						"label": "uint256",
						"numberOfBytes": "32"
					}
				}
			},
			"userdoc": {
				"kind": "user",
				"methods": {},
				"version": 1
			}
		}
	}
}